:100000000C9462010C9493010C9493010C94930151
:100010000C9493010C9493010C9493010C94930110
:100020000C9493010C94EE060C94EE060C94EE06E0
:100030000C9493010C9493010C9493010C949301F0
:100040000C9493010C9493010C9493010C949301E0
:100050000C9493010C9493010C9493010C948109DA
:100060000C9493010C9498030C946E030C949301DC
:100070000C9493010C9493010C9493010C949301B0
:100080000C9493010C9493010C9493010C949301A0
:100090000C9438030C940E030C9493010C9493016C
:1000A0000C9493010C9493010C9493010C94930180
:1000B0000C9493010C9493010C9493010C94930170
:1000C0000C9493010C9493010C9493010C94930160
:1000D0000C9493010C9493010C9493010C94930150
:1000E0000C9493012F0434043F043F043F043F0465
:1000F0004404460449048E069106800684068A0656
:10010000C806950699069F06A306A706AD06B10682
:10011000B506C806BB06BF06C3060C94A3060C941E
:10012000BF060C94DA020C94E6010C94F4010C94D2
:1001300044040C94B1060C9484060C9495010C9420
:10014000B5060C9483020C9495060C94B10B0C9498
:1001500099060C94C3060C9446040C9491060C94D6
:1001600049040C94AD060C94C8060C940A030C9434
:1001700007030C9480060C948A060C948E060C944B
:1001800034040C94D2010C94C3010C9436020C94E8
:10019000BB060C943F040C942F040C949F060C9403
:1001A000A70600002100240027002A002D003000AF
:1001B000330001010000040107010A0100002200D0
:1001C000250028002B002E00310034000201000021
:1001D000050108010B010000200023002600290072
:1001E0002C002F003200000100000301060109016C
:1001F00005050505070508080808020202020A0AA3
:1002000008080404040401010101010101010303C0
:10021000030303030303040707070C0C0C0C0C0C6B
:100220000C0C0202020206060606060606060B0B68
:100230000B0B0B0B0B0B01021020200808102040A9
:10024000102040800201020108040201010204089A
:100250001020408080402010080402018004020128
:100260008040201008040201080402010102040871
:1002700010204080010204081020408000000A0B7A
:1002800002090C0D0E080703040100000000000025
:10029000000000000000000000000000000000005E
:1002A000000000000000000012111000000000001B
:1002B000000000000000000000000000000000003E
:1002C0000000B10B11241FBECFEFD1E2DEBFCDBFC6
:1002D00000E00CBF24E0AAE8B2E001C01D92AC37F8
:1002E000B207E1F712E0A0E0B2E0E0E0FEE100E0FA
:1002F0000BBF02C007900D92AA38B107D9F711E0E1
:10030000C2E6D1E000E006C021970109802FFE017E
:100310000E94E20CC136D10780E00807A9F70E94CD
:10032000CB090C94FE0E0C940000CF92DF92EF925A
:10033000FF920F931F93CF93DF936C017A018B0190
:10034000C0E0D0E0CE15DF0581F0D8016D918D01C0
:10035000D601ED91FC910190F081E02DC601199537
:10036000892B11F02196EECF7E01C701DF91CF914D
:100370001F910F91FF90EF90DF90CF900895089517
:1003800080E090E00895FC01538D448D252F30E0EE
:10039000842F90E0821B930B541710F0CF96089592
:1003A00001970895FC01918D828D981761F0828DDF
:1003B000DF01A80FB11D5D968C91928D9F5F9F7399
:1003C000928F90E008958FEF9FEF0895FC01918D3B
:1003D000828D981731F0828DE80FF11D858D90E0A8
:1003E00008958FEF9FEF0895FC01918D228D892F45
:1003F00090E0805C9F4F821B91098F73992708952D
:100400008AE993E00E94F40121E0892B09F420E0BD
:10041000822F08958EE892E00E94F40121E0892B5A
:1004200009F420E0822F0895FC01848DDF01A80FDC
:10043000B11DA35ABF4F2C91848D90E001968F730C
:100440009927848FA689B7892C93A089B1898C912B
:10045000837080648C93938D848D981306C002887A
:10046000F389E02D80818F7D80830895EF92FF9244
:100470000F931F93CF93DF93EC0181E0888F9B8DC7
:100480008C8D981305C0E889F989808185FD26C087
:10049000F62E0B8D10E00F5F1F4F0F731127E02E0C
:1004A0008C8DE8120CC00FB607FCFACFE889F989E9
:1004B000808185FFF5CFCE010E941402F1CF8B8D94
:1004C000FE01E80FF11DE35AFF4FF0829FB7F89449
:1004D0000B8FEA89FB89808180620AC09FB7F894FC
:1004E000EE89FF896083E889F9898081837080645F
:1004F00080839FBF81E090E0DF91CF911F910F91AA
:10050000FF90EF900895CF93DF93EC01888D8823BF
:10051000C9F0EA89FB89808185FD05C0A889B98970
:100520008C9186FD0FC00FB607FCF5CF808185FF4B
:10053000F2CFA889B9898C9185FFEDCFCE010E94B9
:100540001402E7CFDF91CF91089580E090E0892BEE
:1005500021F00E940A02811121C080E090E0892BE5
:1005600021F00E94000281111CC080E090E0892BE4
:1005700041F080E090E0892B21F00E940000811181
:1005800013C080E090E0892BA1F080E090E0892BFF
:1005900081F00E94000081110AC008950E940000AD
:1005A000DCCF0E940000E1CF0E940000EACF0C9453
:1005B00000000895862F642F0C94AE070E94CF0D83
:1005C0000F931F93CF93DF93EC018881998100975C
:1005D00029F02A813B812617370788F48B016F5F4A
:1005E0007F4F0E94EA0C009761F0998388831B83F8
:1005F0000A832C813D81232B11F4FC01108281E0C0
:1006000001C080E0DF91CF911F910F910895862F57
:100610000C945607862F642F0C947F071F920F921D
:100620000FB60F9211240BB60F922F933F934F9357
:100630005F936F937F938F939F93AF93BF93EF934A
:10064000FF938AE993E00E941402FF91EF91BF911A
:10065000AF919F918F917F916F915F914F913F915A
:100660002F910F900BBE0F900FBE0F901F901895FB
:100670001F920F920FB60F9211240BB60F922F9369
:100680008F939F93EF93FF93E091AA03F091AB03B5
:100690008081E091B003F091B10382FD12C090819E
:1006A0008091B3038F5F8F732091B403821751F051
:1006B000E091B303F0E0E656FC4F958F8093B303CF
:1006C00001C08081FF91EF919F918F912F910F90A9
:1006D0000BBE0F900FBE0F901F9018951F920F9298
:1006E0000FB60F9211240BB60F922F933F934F9397
:1006F0005F936F937F938F939F93AF93BF93EF938A
:10070000FF938EE892E00E941402FF91EF91BF9157
:10071000AF919F918F917F916F915F914F913F9199
:100720002F910F900BBE0F900FBE0F901F9018953A
:100730001F920F920FB60F9211240BB60F922F93A8
:100740008F939F93EF93FF93E0919E02F0919F020E
:100750008081E091A402F091A50282FD12C09081F7
:100760008091A7028F5F8F732091A802821751F0AA
:10077000E091A702F0E0E257FD4F958F8093A7022A
:1007800001C08081FF91EF919F918F912F910F90E8
:100790000BBE0F900FBE0F901F90189596E0899F8B
:1007A000D0011124A55DBC4F90967C936E935F970A
:1007B00091E091969C93919790919703E091980383
:1007C000F0919903992339F0309751F0811108C0C5
:1007D0008091470304C0309719F05C968C9119946E
:1007E0000895EF92FF920F931F93CF93DF93EC0145
:1007F000E12CF12C00E010E08091690490916A04F2
:10080000DC01ED91FC910084F185E02D1995892B97
:1008100081F461E070E080E090E00E944709BFEF62
:10082000EB1AFB0A28EEE21623E0F20628F38FEF1C
:1008300049C08091690490916A04DC01ED91FC91BA
:100840000284F385E02D1995982F0930110548F59C
:10085000F8018827EE58FF4F8F4F0C94E20C9F3E13
:1008600059F61882998328C028813981A901492B1A
:10087000CA019983888381309F4EF1F020C0FE0128
:10088000E00FF11F908318C09E8316C01F829887C7
:1008900013C02F813885D901A92BCD0198878F836B
:1008A0000BC0FE01E00FF11F80832F813885C80146
:1008B00008978217930729F00F5F1F4F9DCF8EEF88
:1008C00001C080E0DF91CF911F910F91FF90EF90D9
:1008D0000895DF92EF92FF920F931F93CF93DF93D0
:1008E000EC018091690490916A046981DC01ED91C9
:1008F000FC910190F081E02D19958091690490910F
:100900006A04DC01ED91FC910190F081E02D688199
:1009100019958091690490916A04DC01ED91FC9134
:100920000190F081E02D6A81199580916904909180
:100930006A04DC01ED91FC910190F081E02D6B8166
:1009400019958091690490916A04DC01ED91FC9104
:100950000190F081E02D6C8119958091690490914E
:100960006A04DC01ED91FC910190F081E02D6D8134
:1009700019958091690490916A04DC01ED91FC91D4
:100980000190F081E02D6E811995EF80F884B2E03E
:10099000EB0EF11C8091690490916A040F2D1127D0
:1009A000DC01ED91FC910190F081E02D602F199513
:1009B0008091690490916A04DC01ED91FC910190B1
:1009C000F081E02D6E2D19950E0D111D8E81080FF1
:1009D000111DD12CED2CF12C2F81388580916904CB
:1009E00090916A04E216F30690F4EC0EFD1EDC0111
:1009F000ED91FC910190F081E02DD70119966C9159
:100A00001995F7018185080F111DD394E3CFDC01FF
:100A1000ED91FC910190F081E02D612F199580916D
:100A2000690490916A04DC01ED91FC910190F081E0
:100A3000E02D602FDF91CF911F910F91FF90EF90EC
:100A4000DF901994009769F0FC0101900020E9F70C
:100A50003197AF01481B590BBC018EE892E00C9412
:100A6000950180E090E008958F929F92AF92BF929F
:100A70000F931F93CF93DF93CDB7DEB7A1970FB638
:100A8000F894DEBF0FBECDBF19A2423008F44AE091
:100A90008E010F5D1F4F842E912CA12CB12CA5012E
:100AA00094010E94C00CE62FB901CA01015011093E
:100AB000EA3014F4E05D01C0E95CD801EC93232B2B
:100AC000242B252B61F7C8010E942205A1960FB6A1
:100AD000F894DEBF0FBECDBFDF91CF911F910F9174
:100AE000BF90AF909F908F900895CF93DF93682F22
:100AF00070E080E090E04AE00E943405EC0187E875
:100B000092E00E9422058C0F9D1FDF91CF910895E6
:100B1000CF93DF930E942205EC0187E892E00E94C8
:100B200022058C0F9D1FDF91CF910895CF93DF9306
:100B3000CDB7DEB7C954D1090FB6F894DEBF0FBEEA
:100B4000CDBF21E03FEE3A83298391E09F8322E0ED
:100B500030E0398728879FEF9B839C839D839E830A
:100B600092E09A878B87CE0101960E946904CE019C
:100B700001960E94F103811105C08F81873011F425
:100B80008A8501C081E0C75BDF4F0FB6F894DEBFF6
:100B90000FBECDBFDF91CF910895CF93DF93CDB737
:100BA000DEB7C954D1090FB6F894DEBF0FBECDBF72
:100BB00081E09FEE9A83898391E09F8321E030E07A
:100BC000398728878FEF8B838C838D838E839A87D9
:100BD000CE0101960E946904CE0101960E94F103A4
:100BE000811105C08F81873011F48A8501C081E0B1
:100BF000C75BDF4F0FB6F894DEBF0FBECDBFDF91EE
:100C0000CF910895CF92DF92EF92FF920F931F93AF
:100C100096E0899FF0011124E55DFC4F11A2278D1C
:100C200030A12130310539F158F02230310509F475
:100C300047C02330310509F04FC060E070E044C088
:100C4000662309F449C061E070E00E94CE032FB72B
:100C5000F89480918A0290918B02A0918C02B091BD
:100C60008D022FBF8093830390938403A093850309
:100C7000B093860331C09FB7F894C0908A02D09099
:100C80008B02E0908C02F0908D029FBF0091830355
:100C9000109184032091850330918603C01AD10AF4
:100CA000E20AF30A009195031091960320E030E0E8
:100CB0000C151D052E053F0518F462E070E004C018
:100CC00061110AC063E070E01F910F91FF90EF90F7
:100CD000DF90CF900C94CE031F910F91FF90EF9077
:100CE000DF90CF90089590E0FC013197E231F1055B
:100CF00008F04EC08827E558FF4F8F4F0C94E20C48
:100D0000809180008F7703C0809180008F7D8093D9
:100D10008000089580918000877FF9CF84B58F7718
:100D200002C084B58F7D84BD08958091B0008F7717
:100D300003C08091B0008F7D8093B00008958091B2
:100D400090008F7707C0809190008F7D03C08091C5
:100D50009000877F8093900008958091A0008F7706
:100D600007C08091A0008F7D03C08091A000877F85
:100D70008093A0000895809120018F7707C0809113
:100D800020018F7D03C080912001877F8093200107
:100D900008953FB7F8948091740490917504A091E0
:100DA0007604B091770426B5A89B05C02F3F19F0B3
:100DB0000196A11DB11D3FBFBA2FA92F982F8827DB
:100DC000820F911DA11DB11DBC01CD0142E0660F36
:100DD000771F881F991F4A95D1F708951F920F9288
:100DE0000FB60F9211240BB60F922F933F938F9350
:100DF0009F93AF93BF93CF93DF93EF93FF93E091D4
:100E00007104F0917204309709F43FC0968DA68565
:100E1000B785858591FF04C09C91892321F435C055
:100E20009C91892391F5A389B4899C9185898095AA
:100E300089238C93868997890197F1F7208D318DCD
:100E4000C685D78588E0D9011197F1F7988181503F
:100E5000D1F78091700490E001968F7399272091CB
:100E60006F04281729F0909170048093700403C0D8
:100E7000868D8160868F828D938D0197F1F7A3898E
:100E8000B4899C918589892B8C93FF91EF91DF9197
:100E9000CF91BF91AF919F918F913F912F910F90E3
:100EA0000BBE0F900FBE0F901F901895CF93DF933E
:100EB000282F30E0F901E458FD4F8491F901EA5CF4
:100EC000FD4FD491F901E051FE4FC491CC2391F034
:100ED00081110E947306EC2FF0E0EE0FFF1FEA5223
:100EE000FE4FA591B491EC91ED2381E090E021F4C7
:100EF00080E002C080E090E0DF91CF9108951F93E1
:100F0000CF93DF93282F30E0F901E458FD4F84910F
:100F1000F901EA5CFD4FD491F901E051FE4FC49113
:100F2000CC23C1F0162F81110E947306EC2FF0E044
:100F3000EE0FFF1FE454FE4FA591B4919FB7F894B4
:100F4000111104C08C91D095D82302C0EC91DE2BF6
:100F5000DC939FBFDF91CF911F910895CF93DF93D3
:100F600090E0FC01EA5CFD4F2491FC01E051FE4F52
:100F70008491882361F190E0880F991FFC01EE5560
:100F8000FE4FC591D491FC01E454FE4FA591B4915C
:100F9000611109C09FB7F8948881209582238883C6
:100FA000EC912E230BC0623061F49FB7F8948881D6
:100FB000322F309583238883EC912E2B2C939FBF67
:100FC00006C08FB7F894E8812E2B28838FBFDF915E
:100FD000CF9108956F927F928F929F92AF92BF921E
:100FE000CF92DF92EF92FF920F931F93CF93DF93F5
:100FF00081E0809397038FB7F89440918A025091D3
:101000008B0260918C0270918D028FBF809187035B
:1010100090918803A0918903B0918A03481B590BD2
:101020006A0B7B0B8091930390919403A0E0B0E056
:1010300084179507A607B70708F0F0C0C0E08091B5
:101040009103C81730F0712C812C912C540183949A
:1010500040C0E0918D03F0918E03EC0FF11D62E032
:1010600080810E94AE07CF5FEACFC62DD0E0E0912D
:101070008D03F0918E03EC0FFD1F80810E945607B7
:101080002496CC0FDD1FC55DDC4F892B09F04BC0CA
:10109000888199818C299D29998388836394809183
:1010A0009103681610F3E0918F03F0919003E00F25
:1010B000F11F61E080810E947F0780918F039091F2
:1010C0009003FC01E00FF11F60E080810E94AE07F9
:1010D000739480919203781658F5072D10E0E091F3
:1010E0008F03F0919003E00FF11F61E080810E9477
:1010F000AE07E0918F03F0919003E00FF11F60E0E5
:1011000080810E947F07D501C401072C04C0880F8D
:10111000991FAA1FBB1F0A94D2F76C017C01E094AF
:10112000F094612CBCCF888199818E219F21B4CF0E
:101130002BE2E22E23E0F22E87E693E0F7012FEF79
:101140003FEF478D50A1452B21F4148E368F258F0C
:1011500011A236968E179F07A1F7C0E096E0D92E10
:1011600080919103C81758F5D0E00C2F10E0000FC4
:10117000111F0D5C1C4F20919203D217F0F4F8015F
:10118000408151810D2E02C0569547950A94E2F791
:10119000642F6170C29F900111242D0F311DEBE26D
:1011A000F3E080E0A58DB68D2A173B0709F456C001
:1011B0008F5F36968A30B1F735C0CF5FD1CF80E0F0
:1011C000F70191A1911181E0F6E0EF0EF11C97E695
:1011D000E91693E0F906A1F79FB7F89440918A02C7
:1011E00050918B0260918C0270918D029FBF409351
:1011F0008703509388036093890370938A0388233D
:1012000069F080914C03882349F080914A039091C2
:101210004B03019719F4809147032AC0109297035A
:1012200080E026C040FF1CC0EBE2F3E080E090E0ED
:10123000448D411117C0E0918B03F0918C03E20FB4
:10124000F31F4081D89EF001D99EF00D1124E55D79
:10125000FC4F448F368F258F10A2178E0E940206F6
:10126000DF5F89CF019636968A30910509F7F8CF6E
:10127000DF91CF911F910F91FF90EF90DF90CF9072
:10128000BF90AF909F908F907F906F9008958F92B6
:101290009F92AF92BF92CF92DF92EF92FF926B013B
:1012A0007C010E94C9064B015C01C114D104E10418
:1012B000F104F1F00E94C906DC01CB0188199909FB
:1012C000AA09BB09883E9340A105B10570F321E04E
:1012D000C21AD108E108F10888EE880E83E0981E52
:1012E000A11CB11CC114D104E104F10419F7DDCF34
:1012F000FF90EF90DF90CF90BF90AF909F908F9036
:1013000008951F920F920FB60F9211242F933F93BF
:101310008F939F93AF93BF9380918A0290918B029A
:10132000A0918C02B0918D023091730423E0230FC1
:101330002D3720F40196A11DB11D05C026E8230F0D
:101340000296A11DB11D2093730480938A0290938D
:101350008B02A0938C02B0938D02809174049091C3
:101360007504A0917604B09177040196A11DB11D7A
:101370008093740490937504A0937604B0937704DB
:10138000BF91AF919F918F913F912F910F900FBE81
:101390000F901F901895CF93DF93CDB7DEB7C95448
:1013A000D1090FB6F894DEBF0FBECDBF789484B5D7
:1013B000826084BD84B5816084BD85B5826085BD51
:1013C00085B5816085BD80916E00816080936E00DF
:1013D00010928100809181008260809381008091D1
:1013E0008100816080938100809180008160809382
:1013F00080008091B10084608093B1008091B00042
:1014000081608093B0008091910082608093910010
:101410008091910081608093910080919000816023
:10142000809390008091A10082608093A1008091C0
:10143000A10081608093A1008091A00081608093D1
:10144000A00080912101826080932101809121017F
:10145000816080932101809120018160809320012F
:1014600080917A00846080937A0080917A00826013
:1014700080937A0080917A00816080937A008091D5
:101480007A00806880937A001092C10061E085E262
:101490000E94AE0761E082E30E94AE07E0919E02E7
:1014A000F0919F0282E0F82EF082E0919A02F09192
:1014B0009B021082E0919C02F0919D0200E100836A
:1014C0001092A602E091A202F091A30216E010830E
:1014D000E091A002F091A102808180618083E0917F
:1014E000A002F091A102808188608083E091A00237
:1014F000F091A102808180688083E091A002F09148
:10150000A10280818F7D80838AE392E00E9488051A
:1015100068EE73E080E090E00E944709E0916D047E
:10152000F0916E04309729F1A089B189FC92A089CD
:10153000B1891C92A485B5851C92A685B7850C93AC
:10154000108EA489B5891C93A289B3898C9180617E
:101550008C93A289B3898C9188608C93A289B3897A
:101560008C9180688C930288F389E02D80818F7D37
:101570008083E0916B04F0916C04309709F4ACC067
:10158000138E128E118E108E178A168A82E490E0C6
:10159000958F848F848596EF980F943048F02EECC9
:1015A000280F243028F022EC280F283008F067C0DC
:1015B0002FE030E0378B268B20E430E0318F208F16
:1015C00027E230E0338F228F943060F02EEC280F2A
:1015D000243040F042EC480F483008F0BAC028E60A
:1015E00030E0B9C028E630E0A8E6B0E04C91943095
:1015F00048F09EEC980F943028F08E53883010F409
:1016000084E001C081E0842BD9018C93848596EF1E
:10161000980F943058F02EEC280F243038F022EC3C
:10162000280F283030F020E030E005C02BE630E015
:1016300002C02DE630E0348B238B943010F49AEF07
:101640000BC0823381F0833381F0843381F092ECDC
:10165000980F983070F492EC980F81E001C0880FD9
:101660009A95EAF707C088E005C084E003C082E0ED
:1016700001C081E0858B848D958D0197F1F7828D76
:10168000938D892B49F14091710450917204E417B4
:10169000F50711F14115510571F0DA0153962D91BD
:1016A0003C915497D9019C91DA0155968C91809583
:1016B0008923D9018C93868D8E7F868F109270043A
:1016C00010926F04F0937204E0937104A389B489BB
:1016D0009C918589892B8C9390914D0420914E0487
:1016E00030914F044091500461E07FEE7A8369832A
:1016F00081E08F8365E070E0798768878FEF8B8367
:101700008C838D838E8383E18A874B873C872D87EB
:101710009E87CE0101960E946904CE0101960E9427
:10172000F103811109C08F81873031F48A858111DD
:1017300003C08AE492E002C084E692E00E94880539
:1017400068EE73E080E090E00E9447090E94A502E5
:10175000FDCF20E030E0483008F446CFA0E0B0E014
:1017600045CF8AE993E010929D0310929C0348EEC6
:1017700053E060E070E040939E0350939F036093BA
:10178000A0037093A10322E232E030939B032093E5
:101790009A03EDECF0E0F093A703E093A603ECECE2
:1017A000F0E0F093A903E093A803E8ECF0E0F093F5
:1017B000AB03E093AA03E9ECF0E0F093AD03E09310
:1017C000AC03EAECF0E0F093AF03E093AE03EEEC91
:1017D000F0E0F093B103E093B0031092B3031092E2
:1017E000B4031092B5031092B603109291021092B6
:1017F00090024093920250939302609394027093EC
:10180000950230938F0220938E0225EC30E03093C6
:101810009B0220939A0224EC30E030939D022093A7
:101820009C0220EC30E030939F0220939E0221EC3A
:1018300030E03093A1022093A00222EC30E03093FC
:10184000A3022093A20226EC30E03093A50220935D
:10185000A4021092A7021092A8021092A90210925C
:10186000AA0210923E0410923D041092400410927D
:101870003F0420E430E0309342042093410410926E
:101880004404109243044FEF5FEFBA0140934504C4
:1018900050934604609347047093480430934A047D
:1018A0002093490420E031EE30934C0420934B0404
:1018B00010924D0410924E0410924F041092500456
:1018C0004093510450935204609353047093540412
:1018D00010926C0410926B0490936E0480936D04CC
:1018E00090936A048093690410922D03109231033F
:1018F000109230031092320384E392E090932C0311
:1019000080932B03EBE2F3E087E693E0148E10A2C2
:10191000178E11A236968E179F07C1F784E092E0CA
:1019200090938E0380938D0380E092E090939003D8
:1019300080938F0384E0809391038093920388E0E7
:1019400092E090938C0380938B038AE090E09093D5
:1019500094038093930384EF91E090939603809394
:101960009503109299031092980310928703109296
:1019700088031092890310928A03109297030895A6
:10198000A1E21A2EAA1BBB1BFD010DC0AA1FBB1F83
:10199000EE1FFF1FA217B307E407F50720F0A21BF5
:1019A000B30BE40BF50B661F771F881F991F1A9462
:1019B00069F760957095809590959B01AC01BD018C
:1019C000CF010895EE0FFF1F881F8BBF0790F69180
:1019D000E02D19946F927F928F929F92AF92BF9257
:1019E000CF92DF92EF92FF920F931F93CF93DF93EB
:1019F000009789F4CB01DF91CF911F910F91FF9058
:101A0000EF90DF90CF90BF90AF909F908F907F909E
:101A10006F900C94DD0DFC01E60FF71F9C01225026
:101A20003109E217F30708F4A9C0EC01D9010D91BF
:101A30001C91119706171707B0F00530110508F42F
:101A40009BC0C80104978617970708F495C00250F9
:101A50001109061B170B019311936D937C93CF0112
:101A60000E94750E89C05B01A01AB10A4C01800E5C
:101A7000911EA0917A04B0917B04612C712CE12C11
:101A8000F12C109709F446C08D919C911197A815DF
:101A9000B905B1F56C0142E0C40ED11CCA14DB04D7
:101AA00078F14C018A189B08640142E0C40ED11CF5
:101AB0001296BC9012971396AC91B5E0CB16D10458
:101AC00040F0B282A38391828082D9016D937C938E
:101AD00009C00E5F1F4F800F911FF9019183808312
:101AE000EB2DFA2FE114F10431F0D7011396FC939A
:101AF000EE93129741C0F0937B04E0937A043CC0CC
:101B00006816790608F43C017D0112960D90BC918F
:101B1000A02DB7CF8091780490917904881699060A
:101B2000E1F466167706C8F48091180290911902C4
:101B3000009741F48DB79EB740911C0250911D0251
:101B4000841B950BE817F907C8F4F0937904E09328
:101B50007804F901718360830FC0CB010E94DD0D11
:101B60007C01009759F0A801BE010E94D40DCE015E
:101B70000E94750EC70104C0CE0102C080E090E053
:101B8000DF91CF911F910F91FF90EF90DF90CF9059
:101B9000BF90AF909F908F907F906F90089581E05D
:101BA00090E0F8940C94FE0EFB01DC0102C0019061
:101BB0000D9241505040D8F708950F931F93CF9343
:101BC000DF938230910510F482E090E0E0917A0496
:101BD000F0917B0420E030E0A0E0B0E0309719F114
:101BE000408151810281138148175907C8F0841739
:101BF000950769F4109731F012960C93129713968B
:101C00001C9327C000937A0410937B0422C02115F3
:101C1000310519F04217530718F49A01BD01EF017D
:101C2000DF01F801DBCF21153105F9F0281B390B55
:101C30002430310580F48A819B816115710521F082
:101C4000FB019383828304C090937B0480937A0486
:101C5000FE01329644C0FE01E20FF31F819391937F
:101C600022503109398328833AC020917804309179
:101C70007904232B41F420911A0230911B023093F6
:101C800079042093780420911802309119022115CB
:101C9000310541F42DB73EB740911C0250911D0211
:101CA000241B350BE0917804F0917904E217F307D7
:101CB000A0F42E1B3F0B2817390778F0AC014E5FBC
:101CC0005F4F2417350748F04E0F5F1F509379047C
:101CD000409378048193919302C0E0E0F0E0CF015B
:101CE000DF91CF911F910F910895CF93DF930097CC
:101CF00009F481C0FC01329713821282A0917A0408
:101D0000B0917B04109781F420813181820F931F61
:101D100020917804309179042817390751F5F09310
:101D20007904E093780467C0ED0120E030E0CE173D
:101D3000DF0740F44A815B819E0141155105F1F0B6
:101D4000EA01F5CFD383C28340815181840F951F6F
:101D5000C817D90759F488819981840F951F029675
:101D6000918380838A819B819383828321153105AE
:101D700029F4F0937B04E0937A043DC0E901FB83EE
:101D8000EA8349915991C40FD51FEC17FD0761F4FF
:101D900080819181840F951F0296E9019983888340
:101DA000828193819B838A83E0E0F0E012968D919B
:101DB0009C911397009719F0FD01DC01F7CF8D91ED
:101DC0009C9111979D012E5F3F4F820F931F209191
:101DD0007804309179042817390769F4309729F489
:101DE00010927B0410927A0402C013821282B09384
:101DF0007904A0937804DF91CF910895F894FFCFF0
:101E00002D2B29273533312F3132334134353642AA
:101E1000373839432A30234400007C042000000076
:101E2000000036029501C3018302F401D201E601EC
:101E300000000000DA020A030703486F6D652041C5
:101E400075746F6D6174696F6E00466F756E642096
:101E500066696E6765727072696E742073656E7301
:101E60006F722100446964206E6F742066696E642D
:101E70002066696E6765727072696E742073656E34
:0A1E8000736F72203A28000D0A006B
:00000001FF
