:100000000C9462010C9493010C9493010C94930151
:100010000C9493010C9493010C9493010C94930110
:100020000C9493010C94B9050C94B9050C94B90582
:100030000C9493010C9493010C9493010C949301F0
:100040000C9493010C9493010C9493010C949301E0
:100050000C9493010C9493010C9493010C9421063D
:100060000C9493010C94F5060C94CB060C9493011C
:100070000C9493010C9493010C9493010C949301B0
:100080000C9493010C9493010C9493010C949301A0
:100090000C9495060C946B060C9493010C949301AC
:1000A0000C9493010C9493010C9493010C94930180
:1000B0000C9493010C9493010C9493010C94930170
:1000C0000C9493010C9493010C9493010C94930160
:1000D0000C9493010C9493010C9493010C94930150
:1000E0000C94930169026C025B025F026502A30239
:1000F000700274027A027E02820288028C029002EE
:10010000A30296029A029E027D0382038D038D0351
:100110008D038D039203940397030C94F4030C94C2
:10012000E5030C9482030C9482020C9469020C94F3
:100130007D030C94B7030C9494030C9496020C94D6
:1001400090020C945B020C948D030C945F020C944F
:100150008C020C94A3020C947A020C9458040C9414
:100160009A020C9488020C9492030C9452050C94FD
:1001700008040C94FC040C9474020C9470020C940B
:1001800097030C946C020C9424050C947E020C943E
:100190009E020C9416040C9465020C94A5040C9415
:1001A0002B07000020002300260029002C002F0030
:1001B00032000001000003010601090100000A0BE2
:1001C00002090C0D0E0807030401000000000000E6
:1001D000000000000000000000000000000000001F
:1001E00000000000000000001211100000000000DC
:1001F00000000000000000000000000000000000FF
:10020000000000002200250028002B002E003100F5
:10021000340002010000050108010B01000021006B
:10022000240027002A002D003000330001010000C7
:10023000040107010A010505050507050808080866
:10024000020202020A0A080804040404010101016E
:100250000101010103030303030303030407070769
:100260000C0C0C0C0C0C0C0C02020202060606060E
:10027000060606060B0B0B0B0B0B0B0B01021020DB
:1002800020080810204010204080020102010804CC
:100290000201010204081020408080402010080460
:1002A00002018004020180402010080402010804B9
:1002B00002010102040810204080010204081020FD
:1002C00040802B0711241FBECFEFD1E2DEBFCDBF90
:1002D00000E00CBF24E0AAEAB2E001C01D92A839F8
:1002E000B207E1F712E0A0E0B2E0ECE3F6E100E0F3
:1002F0000BBF02C007900D92AA3AB107D9F711E0DF
:10030000C2E6D1E000E006C021970109802FFE017E
:100310000E940F0BC136D10780E00807A9F70E94A1
:100320003A080C941C0B0C940000DF92EF92FF92A1
:100330000F931F93CF93DF93EC01809192049091E0
:1003400093046981DC01ED91FC910190F081E02D35
:1003500019958091920490919304DC01ED91FC91A8
:100360000190F081E02D688119958091920490911F
:100370009304DC01ED91FC910190F081E02D6A8104
:1003800019958091920490919304DC01ED91FC9178
:100390000190F081E02D6B811995809192049091EC
:1003A0009304DC01ED91FC910190F081E02D6C81D2
:1003B00019958091920490919304DC01ED91FC9148
:1003C0000190F081E02D6D811995809192049091BA
:1003D0009304DC01ED91FC910190F081E02D6E81A0
:1003E0001995EF80F884B2E0EB0EF11C8091920435
:1003F000909193040F2D1127DC01ED91FC91019058
:10040000F081E02D602F19958091920490919304D2
:10041000DC01ED91FC910190F081E02D6E2D19959C
:100420000E0D111D8E81080F111DD12CED2CF12CFC
:100430002F8138858091920490919304E216F306FF
:1004400090F4EC0EFD1EDC01ED91FC910190F08129
:10045000E02DD70119966C911995F7018185080F48
:10046000111DD394E3CFDC01ED91FC910190F0815B
:10047000E02D612F19958091920490919304DC01F5
:10048000ED91FC910190F081E02D602FDF91CF91F3
:100490001F910F91FF90EF90DF90199490E0FC0175
:1004A0003197E231F10508F04EC08827EE58FF4F32
:1004B0008F4F0C940F0B809180008F7703C0809139
:1004C00080008F7D80938000089580918000877FD9
:1004D000F9CF84B58F7702C084B58F7D84BD089530
:1004E0008091B0008F7703C08091B0008F7D8093A2
:1004F000B0000895809190008F7707C080919000A0
:100500008F7D03C080919000877F80939000089535
:100510008091A0008F7707C08091A0008F7D03C0DD
:100520008091A000877F8093A00008958091200192
:100530008F7707C0809120018F7D03C080912001BB
:10054000877F809320010895CF93DF9390E0FC0193
:10055000E458FD4F2491FC01EA5CFD4F849188230F
:1005600061F190E0880F991FFC01E45EFD4FC59199
:10057000D491FC01EE5FFD4FA591B491611109C0CA
:100580009FB7F8948881209582238883EC912E234D
:100590000BC0623061F49FB7F8948881322F309598
:1005A00083238883EC912E2B2C939FBF06C08FB79B
:1005B000F894E8812E2B28838FBFDF91CF91089587
:1005C0003FB7F8948091AF029091B002A091B10230
:1005D000B091B20226B5A89B05C02F3F19F0019635
:1005E000A11DB11D3FBFBA2FA92F982F8827820FB9
:1005F000911DA11DB11DBC01CD0142E0660F771F09
:10060000881F991F4A95D1F708958F929F92AF92B4
:10061000BF92CF92DF92EF92FF926B017C010E941A
:10062000E0024B015C01C114D104E104F104F1F0DA
:100630000E94E002DC01CB0188199909AA09BB09D3
:10064000883E9340A105B10570F321E0C21AD1089C
:10065000E108F10888EE880E83E0981EA11CB11C09
:10066000C114D104E104F10419F7DDCFFF90EF903C
:10067000DF90CF90BF90AF909F908F900895EF92B2
:10068000FF920F931F93CF93DF93EC01E12CF12C9A
:1006900000E010E08091920490919304DC01ED91D0
:1006A000FC910084F185E02D1995892B81F461E09E
:1006B00070E080E090E00E940503BFEFEB1AFB0AB8
:1006C00028EEE21623E0F20628F38FEF49C080916E
:1006D000920490919304DC01ED91FC910284F385E6
:1006E000E02D1995982F0930110548F5F801882754
:1006F000EC57FF4F8F4F0C940F0B9F3E59F618820B
:10070000998328C028813981A901492BCA0199837D
:10071000888381309F4EF1F020C0FE01E00FF11F71
:10072000908318C09E8316C01F82988713C02F81A4
:100730003885D901A92BCD0198878F830BC0FE0185
:10074000E00FF11F80832F813885C8010897821739
:10075000930729F00F5F1F4F9DCF8EEF01C080E000
:10076000DF91CF911F910F91FF90EF900895CF925D
:10077000DF92EF92FF920F931F93CF93DF936C0161
:100780007A018B01C0E0D0E0CE15DF0581F0D80101
:100790006D918D01D601ED91FC910190F081E02DDC
:1007A000C6011995892B11F02196EECF7E01C70164
:1007B000DF91CF911F910F91FF90EF90DF90CF903D
:1007C0000895089580E090E00895FC01538D448DD4
:1007D000252F30E0842F90E0821B930B541710F0EC
:1007E000CF96089501970895FC01918D828D9817F9
:1007F00061F0828DDF01A80FB11D5D968C91928D05
:100800009F5F9F73928F90E008958FEF9FEF089501
:10081000FC01918D828D981731F0828DE80FF11DCA
:10082000858D90E008958FEF9FEF0895FC01918DE5
:10083000228D892F90E0805C9F4F821B91098F73DE
:100840009927089583EC93E00E94160421E0892BF8
:1008500009F420E0822F089587EB92E00E941604AD
:1008600021E0892B09F420E0822F0895FC01848D7A
:10087000DF01A80FB11DA35ABF4F2C91848D90E0CA
:1008800001968F739927848FA689B7892C93A089A5
:10089000B1898C91837080648C93938D848D98132F
:1008A00006C00288F389E02D80818F7D80830895C2
:1008B000EF92FF920F931F93CF93DF93EC0181E0B0
:1008C000888F9B8D8C8D981305C0E889F98980816C
:1008D00085FD26C0F62E0B8D10E00F5F1F4F0F73A6
:1008E0001127E02E8C8DE8120CC00FB607FCFACF52
:1008F000E889F989808185FFF5CFCE010E94360411
:10090000F1CF8B8DFE01E80FF11DE35AFF4FF0820E
:100910009FB7F8940B8FEA89FB89808180620AC0B7
:100920009FB7F894EE89FF896083E889F98980810F
:100930008370806480839FBF81E090E0DF91CF91DE
:100940001F910F91FF90EF900895CF93DF93EC01EB
:10095000888D8823C9F0EA89FB89808185FD05C0DF
:10096000A889B9898C9186FD0FC00FB607FCF5CF19
:10097000808185FFF2CFA889B9898C9185FFEDCF61
:10098000CE010E943604E7CFDF91CF91089580E039
:1009900090E0892B21F00E942C04811121C080E07D
:1009A00090E0892B21F00E94220481111CC080E07C
:1009B00090E0892B41F080E090E0892B21F00E94AB
:1009C0000000811113C080E090E0892BA1F080E04D
:1009D00090E0892B81F00E94000081110AC00895E7
:1009E0000E940000DCCF0E940000E1CF0E940000C6
:1009F000EACF0C9400000895CF93DF9370E0FB01E1
:100A0000E454FE4F8491FB01E458FD4FD491FB0167
:100A1000EA5CFD4FC491CC2391F081110E944E02FB
:100A2000EC2FF0E0EE0FFF1FEE55FE4FA591B491B5
:100A3000EC91ED2381E090E021F480E002C080E0C1
:100A400090E0DF91CF9108951F93CF93DF9370E0F3
:100A5000FB01E454FE4F8491FB01E458FD4FD49117
:100A6000FB01EA5CFD4FC491CC23C1F0142F81112E
:100A70000E944E02EC2FF0E0EE0FFF1FEE5FFD4FE5
:100A8000A591B4919FB7F894111104C08C91D095A1
:100A9000D82302C0EC91DE2BDC939FBFDF91CF9176
:100AA0001F910895862F642F0C94A402009769F07B
:100AB000FC0101900020E9F73197AF01481B590B69
:100AC000BC0187EB92E00C94B70380E090E00895BE
:100AD0008F929F92AF92BF920F931F93CF93DF930A
:100AE000CDB7DEB7A1970FB6F894DEBF0FBECDBF6E
:100AF00019A2423008F44AE08E010F5D1F4F842E88
:100B0000912CA12CB12CA50194010E94ED0AE62F95
:100B1000B901CA0101501109EA3014F4E05D01C0C5
:100B2000E95CD801EC93232B242B252B61F7C8011A
:100B30000E945605A1960FB6F894DEBF0FBECDBF3A
:100B4000DF91CF911F910F91BF90AF909F908F90A9
:100B50000895CF93DF930E945605EC018AE392E05B
:100B60000E9456058C0F9D1FDF91CF9108950E9422
:100B7000170B1F920F920FB60F9211240BB60F9204
:100B80002F933F938F939F93AF93BF93CF93DF9315
:100B9000EF93FF93E091B502F091B602309709F41C
:100BA0003FC0968DA685B785858591FF04C09C9131
:100BB000892321F435C09C91892391F5A389B489B7
:100BC0009C918589809589238C9386899789019743
:100BD000F1F7208D318DC685D78588E0D901119731
:100BE000F1F798818150D1F78091B40290E001969D
:100BF0008F7399272091B302281729F09091B4029E
:100C00008093B40203C0868D8160868F828D938D20
:100C10000197F1F7A389B4899C918589892B8C93DD
:100C2000FF91EF91DF91CF91BF91AF919F918F9104
:100C30003F912F910F900BBE0F900FBE0F901F9002
:100C400018951F920F920FB60F9211242F933F9376
:100C50008F939F93AF93BF938091AB029091AC021F
:100C6000A091AD02B091AE023091AA0223E0230F11
:100C70002D3720F40196A11DB11D05C026E8230FD4
:100C80000296A11DB11D2093AA028093AB029093FE
:100C9000AC02A093AD02B093AE028091AF029091EE
:100CA000B002A091B102B091B2020196A11DB11D96
:100CB0008093AF029093B002A093B102B093B202BE
:100CC000BF91AF919F918F913F912F910F900FBE48
:100CD0000F901F9018951F920F920FB60F9211242C
:100CE0000BB60F922F933F934F935F936F937F9326
:100CF0008F939F93AF93BF93EF93FF9383EC93E016
:100D00000E943604FF91EF91BF91AF919F918F9117
:100D10007F916F915F914F913F912F910F900BBEFB
:100D20000F900FBE0F901F9018951F920F920FB645
:100D30000F9211240BB60F922F938F939F93EF93E3
:100D4000FF93E091D303F091D4038081E091D90324
:100D5000F091DA0382FD12C090818091DC038F5FF5
:100D60008F732091DD03821751F0E091DC03F0E0F6
:100D7000ED53FC4F958F8093DC0301C08081FF9180
:100D8000EF919F918F912F910F900BBE0F900FBEFF
:100D90000F901F9018951F920F920FB60F9211246B
:100DA0000BB60F922F933F934F935F936F937F9365
:100DB0008F939F93AF93BF93EF93FF9387EB92E053
:100DC0000E943604FF91EF91BF91AF919F918F9157
:100DD0007F916F915F914F913F912F910F900BBE3B
:100DE0000F900FBE0F901F9018951F920F920FB685
:100DF0000F9211240BB60F922F938F939F93EF9323
:100E0000FF93E091C702F091C8028081E091CD028A
:100E1000F091CE0282FD12C090818091D0028F5F4E
:100E20008F732091D102821751F0E091D002F0E04F
:100E3000E954FD4F958F8093D00201C08081FF91CE
:100E4000EF919F918F912F910F900BBE0F900FBE3E
:100E50000F901F90189583EC93E01092C6031092A8
:100E6000C50348EE53E060E070E04093C703509341
:100E7000C8036093C9037093CA0322E232E030933F
:100E8000C4032093C303EDECF0E0F093D003E093B0
:100E9000CF03ECECF0E0F093D203E093D103E8EC65
:100EA000F0E0F093D403E093D303E9ECF0E0F093A7
:100EB000D603E093D503EAECF0E0F093D803E09397
:100EC000D703EEECF0E0F093DA03E093D90310924D
:100ED000DC031092DD031092DE031092DF03109208
:100EE000BA021092B9024093BB025093BC026093C5
:100EF000BD027093BE023093B8022093B70225EC76
:100F000030E03093C4022093C30224EC30E03093ED
:100F1000C6022093C50220EC30E03093C802209333
:100F2000C70221EC30E03093CA022093C90222ECC0
:100F300030E03093CC022093CB0226EC30E03093AB
:100F4000CE022093CD021092D0021092D1021092C4
:100F5000D2021092D302109267041092660410928B
:100F600069041092680420E430E030936B0420930D
:100F70006A0410926D0410926C044FEF5FEFBA0197
:100F800040936E0450936F046093700470937104E7
:100F9000309373042093720420E031EE3093750493
:100FA00020937404109276041092770410927804BF
:100FB0001092790440937A0450937B0460937C04EC
:100FC00070937D041092950410929404909397046A
:100FD0008093960490939304809392041092560306
:100FE00010925A031092590310925B0384E392E02B
:100FF0009093550380935403E4E5F3E080E993E094
:10100000148E10A2178E11A236968E179F07C1F765
:1010100084E092E09093B7038093B60380E092E07F
:101020009093B9038093B80384E08093BA038093CC
:10103000BB0388E092E09093B5038093B4038AE009
:1010400090E09093BD038093BC0384EF91E0909374
:10105000BF038093BE031092C2031092C10310928B
:10106000B0031092B1031092B2031092B303109226
:10107000C0030895CF93DF93CDB7DEB7CF54D10926
:101080000FB6F894DEBF0FBECDBF789484B58260F2
:1010900084BD84B5816084BD85B5826085BD85B51C
:1010A000816085BD80916E00816080936E0010929A
:1010B0008100809181008260809381008091810015
:1010C00081608093810080918000816080938000A6
:1010D0008091B10084608093B1008091B000816004
:1010E0008093B00080919100826080939100809104
:1010F0009100816080939100809190008160809345
:1011000090008091A10082608093A1008091A10055
:1011100081608093A1008091A00081608093A000F5
:101120008091210182608093210180912101816061
:101130008093210180912001816080932001809122
:101140007A00846080937A0080917A008260809334
:101150007A0080917A00816080937A0080917A0091
:10116000806880937A001092C10061E085E20E945D
:10117000A40261E082E30E94A402E091C702F09120
:10118000C80252E0F52EF082E091C302F091C40251
:101190001082E091C502F091C60200E10083109236
:1011A000CF02E091CB02F091CC0216E01083E091E7
:1011B000C902F091CA02808180618083E091C902F6
:1011C000F091CA02808188608083E091C902F09129
:1011D000CA02808180688083E091C902F091CA02CE
:1011E00080818F7D80838DE392E00E94A90568EE67
:1011F00073E080E090E00E940503E0919604F09196
:101200009704309729F1A089B189FC92A089B1890E
:101210001C92A485B5851C92A685B7850C93108E6B
:10122000A489B5891C93A289B3898C9180618C9320
:10123000A289B3898C9188608C93A289B3898C919F
:1012400080688C930288F389E02D80818F7D808374
:10125000E0919404F0919504309709F49CC0138EAA
:10126000128E118E108E178A168A82E490E0958F66
:10127000848F848596EF980F943048F02EEC280FD9
:10128000243028F022EC280F283008F057C02FE037
:1012900030E0378B268B20E430E0318F208F27E23F
:1012A00030E0338F228F943058F02EEC280F24300A
:1012B00038F042EC480F483030F428E630E005C002
:1012C00028E630E087C120E030E0483008F482C1F1
:1012D000A0E0B0E04C91943008F460C19EEC980F0F
:1012E000943008F45BC18E53883008F057C184E015
:1012F000842BD9018C93848596EF980F943008F451
:101300004FC12EEC280F243008F44AC122EC280FDC
:10131000283008F048C12DE630E0348B238B943020
:1013200008F044C19AEF980F81E001C0880F9A95A8
:10133000EAF7858B848D958D0197F1F7828D938DDA
:10134000892B49F14091B5025091B602E417F50797
:1013500011F14115510571F0DA0153962D913C912F
:101360005497D9019C91DA0155968C9180958923E7
:10137000D9018C93868D8E7F868F1092B402109245
:10138000B302F093B602E093B502A389B4899C91AD
:101390008589892B8C9390917604209177043091E4
:1013A00078044091790461E07FEE7A83698381E07B
:1013B0008F8365E070E0798768878FEF8B838C83FC
:1013C0008D838E8383E18A874B873C872D879E8719
:1013D000CE0101960E949501CE0101960E943F0325
:1013E000811109C08F81873031F48A85811103C052
:1013F0008DE492E002C087E692E00E94A90568EEC3
:1014000073E080E090E00E940503EE24E3948FEE09
:10141000F82E01E0CC24C394D12C1FEF22E0A22EA1
:10142000B12C32E0332E46E0842E912CFA82E982F0
:101430000F83D986C8861B831C831D831E830A875E
:10144000CE0101960E949501CE0101960E943F03B4
:10145000811106C08F81873019F48A85882319F09D
:101460008FEF9FEF7DC0FA82E9820F83B986A8864D
:101470001B831C831D831E833A860B87CE01019636
:101480000E949501CE0101960E943F038111E8CF91
:101490008F81873029F78A858111E2CF86E0E8E1E4
:1014A000F2E0DE01A65BBF4F01900D928A95E1F755
:1014B000FA82E9820F83998688861B831C831D83A9
:1014C0001E8386E0FE01E65BFF4FDE011A96019067
:1014D0000D928A95E1F7CE0101960E949501CE0109
:1014E00001960E943F038111BBCF8F81873009F0A5
:1014F000B7CF8B859C85982789279827909361047F
:10150000809360048D859E859827892798279093DE
:101510006304809362048A858111A2CF8AE892E0F5
:101520000E945605609160047091610480E090E033
:101530004AE00E94680585E992E00E9456056091A4
:1015400062047091630480E090E04AE00E946805C4
:101550008AE392E00E9456058091600490916104B4
:101560002C01990F6608770877FE0EC06DE287EBB5
:1015700092E00E94580466277727CB016419750909
:10158000860997094AE003C04AE0C301B2010E94FC
:1015900068058AE392E00E94560548CF81E0A8CE14
:1015A0002BE630E0BACE20E030E0B7CE823351F007
:1015B000833351F0843351F092EC980F983040F41B
:1015C00092ECB1CE88E0B5CE84E0B3CE82E0B1CE6D
:1015D00081E0AFCEA8E6B0E07DCEA1E21A2EAA1B34
:1015E000BB1BFD010DC0AA1FBB1FEE1FFF1FA217D3
:1015F000B307E407F50720F0A21BB30BE40BF50BD0
:10160000661F771F881F991F1A9469F76095709558
:10161000809590959B01AC01BD01CF010895EE0F1F
:10162000FF1F881F8BBF0790F691E02D199481E072
:0C16300090E0F8940C941C0BF894FFCF91
:10163C002D2B29273533312F313233413435364276
:10164C00373839432A3023441B01000000A3000023
:10165C0000005804B703E503A5041604F4030804BA
:10166C000000000052052405FC040D0A00486F6DB3
:10167C0065204175746F6D6174696F6E00466F758E
:10168C006E642066696E6765727072696E74207321
:10169C00656E736F722100446964206E6F742066EE
:1016AC00696E642066696E6765727072696E74200B
:1016BC0073656E736F72203A2800466F756E6420E6
:1016CC004944202300207769746820636F6E666933
:0A16DC0064656E6365206F662000F0
:00000001FF
