:100000000C9478010C94A9010C94A9010C94A901F9
:100010000C94A9010C94A9010C94A9010C94A901B8
:100020000C94A9010C94B3020C94B3020C94B30287
:100030000C94A9010C94A9010C94A9010C94A90198
:100040000C94A9010C94A9010C94A9010C94A90188
:100050000C94A9010C94A9010C94A9010C94650DB0
:100060000C94A9010C94ED0B0C94C30B0C94A901F6
:100070000C94A9010C94A9010C94A9010C94A90158
:100080000C94A9010C94A9010C94A9010C94A90148
:100090000C94A9010C94A9010C94A9010C94EA03F5
:1000A0000C94A9010C94A9010C94A9010C94A90128
:1000B0000C94A9010C94A9010C94A9010C94A90118
:1000C0000C94A9010C94A9010C94A9010C94A90108
:1000D0000C94A9010C94A9010C948D0B0C94630B46
:1000E0000C94A90178027B026A026E027402B202C9
:1000F0007F02830289028D02910297029B029F0276
:10010000B202A502A902AD0290079507A007A007B9
:10011000A007A007A507A707AA070C94AA070C9495
:1001200074020C94A5020C94D80A0C9490070C94B9
:10013000D10A0C948A090C94AD020C94D3010C944E
:10014000CC0A0C9483020C946E020C94D5010C948E
:100150007F020C94CB0A0C94F9010C943A0D0C9488
:10016000E5090C9401020C94740A0C9495070C9404
:1001700097020C9489020C949F020C947B020C94BD
:10018000B2020C9478020C949B020C94A7070C9476
:10019000D40A0C94270A0C942E020C94B4090C94E3
:1001A000A0070C941F100C94A9020C9491020C94BB
:1001B000A5070C946A020C94E5010C94D4010C94EC
:1001C0008D020C94D6010C94C3090C94D70900003D
:1001D0002100240027002A002D00300033000101F7
:1001E0000000040107010A01000022002500280088
:1001F0002B002E003100340002010000050108012F
:100200000B01000020002300260029002C002F00F5
:100210003200000100000301060109010505050582
:10022000070508080808020202020A0A080804046E
:10023000040401010101010101010303030303039C
:100240000303040707070C0C0C0C0C0C0C0C02022B
:10025000020206060606060606060B0B0B0B0B0B28
:100260000B0B0102102020080810204010204080B5
:10027000020102010804020101020408102040806A
:1002800080402010080402018004020180402010F8
:100290000804020108040201010204081020408041
:1002A000010204081020408000000A0B02090C0D16
:1002B0000E08070304010000000000000000000019
:1002C000000000000000000000000000000000002E
:1002D00000000000121110000000000000000000EB
:1002E00000000000000000000000000000001F10DF
:1002F00011241FBECFEFD1E2DEBFCDBF00E00CBFA7
:1003000025E0A8EBB2E001C01D92AD37B207E1F7DE
:1003100012E0A0E0B2E0EEE2F7E200E00BBF02C0C4
:1003200007900D92A83BB107D9F711E0C8E7D1E0DB
:1003300000E006C021970109802FFE010E9479117B
:10034000C737D10780E00807A9F70E94AF0D0C94CA
:1003500095130C94000040915203262F30E0240F97
:10036000311D21323105DCF42091E7022430C9F43B
:10037000FC0180E090E0861758F4309152032191FF
:10038000DC01AE5CBC4FA30FB11D2C930196F3CFE3
:1003900080915203680F6093520380E0089581E0DA
:1003A000089582E00895089508950895E091DA028D
:1003B0008091D902E81730F4F0E0EF5EFC4F8081C5
:1003C00090E008958FEF9FEF08959091DA02809169
:1003D000D902981750F4E92FF0E0EF5EFC4F20812E
:1003E00030E09F5F9093DA0202C02FEF3FEFC90128
:1003F00008958091D90290E02091DA02821B910940
:100400000895CF92DF92EF92FF920F931F93CF93B5
:10041000DF937C01CB018A012091D802222389F04D
:10042000EB016B01C40ED51ECC15DD0569F0699199
:10043000D701ED91FC910190F081E02DC701199554
:10044000F3CF642F0E94AB01C801DF91CF911F91C0
:100450000F91FF90EF90DF90CF900895CF93DF93AF
:100460001F92CDB7DEB769832091D8022223D1F045
:100470002091DB02203240F021E030E0FC013383A8
:10048000228380E090E015C08091DC02E82FF0E04C
:10049000E854FD4F998190838F5F8093DC028093B5
:1004A000DB0205C061E0CE0101960E94AB0181E054
:1004B00090E00F90DF91CF91089590E0FC0131978B
:1004C000E231F10508F04EC08827EE58FF4F8F4FFC
:1004D0000C947911809180008F7703C08091800007
:1004E0008F7D80938000089580918000877FF9CF71
:1004F00084B58F7702C084B58F7D84BD08958091C7
:10050000B0008F7703C08091B0008F7D8093B000E2
:100510000895809190008F7707C0809190008F7D23
:1005200003C080919000877F809390000895809110
:10053000A0008F7707C08091A0008F7D03C08091BD
:10054000A000877F8093A0000895809120018F777D
:1005500007C0809120018F7D03C080912001877F9B
:100560008093200108951F920F920FB60F921124CD
:100570000BB60F922F933F938F939F93AF93BF939D
:10058000CF93DF93EF93FF93E0910F03F09110036C
:10059000309709F43FC0968DA685B785858591FF74
:1005A00004C09C91892321F435C09C91892391F545
:1005B000A389B4899C918589809589238C938689A8
:1005C00097890197F1F7208D318DC685D78588E011
:1005D000D9011197F1F798818150D1F780910E03DD
:1005E00090E001968F73992720910D03281729F029
:1005F00090910E0380930E0303C0868D8160868FD9
:10060000828D938D0197F1F7A389B4899C91858997
:10061000892B8C93FF91EF91DF91CF91BF91AF9197
:100620009F918F913F912F910F900BBE0F900FBE16
:100630000F901F901895CF93DF93282F30E0F9018A
:10064000E855FD4F8491F901EE59FD4FD491F90120
:10065000E45EFD4FC491CC2391F081110E945D02B4
:10066000EC2FF0E0EE0FFF1FEE5FFD4FA591B49170
:10067000EC91ED2381E090E021F480E002C080E085
:1006800090E0DF91CF9108951F93CF93DF93282FB0
:1006900030E0F901E855FD4F8491F901EE59FD4F25
:1006A000D491F901E45EFD4FC491CC23C1F0162F23
:1006B00081110E945D02EC2FF0E0EE0FFF1FE85168
:1006C000FE4FA591B4919FB7F894111104C08C917D
:1006D000D095D82302C0EC91DE2BDC939FBFDF9135
:1006E000CF911F9108951092E70281E08093E90273
:1006F0001092E80261E084E10E94440361E085E138
:100700000E944403E9EBF0E080818E7F808380814A
:100710008D7F808388E48093B80085E48093BC005B
:100720000895CF93DF9391E0909331038823B9F03C
:10073000C091B800D091BA008091BC008A7B8093B0
:10074000BC0060E084E10E94440360E085E10E9417
:1007500044030E947303D093BA00C093B800DF91A2
:10076000CF91089585ED8093BC008091DE02909139
:10077000DF02A091E002B091E1020796A11DB11D38
:1007800023E0B695A795979587952A95D1F720915F
:10079000BC0024FF1CC04091DE025091DF0260913A
:1007A000E0027091E102452B462B472B81F3009725
:1007B000A105B10541F025E32A95F1F70000019765
:1007C000A109B109E4CF8091DD020C94910310924C
:1007D000E70208951F920F920FB60F9211240BB6E5
:1007E0000F922F933F934F935F936F937F938F93CA
:1007F0009F93AF93BF93EF93FF938091B900887F4E
:10080000803609F49CC068F5883209F45BC090F426
:10081000803109F454C038F4882309F4F6C08830D4
:1008200009F44DC0F6C0883109F44CC0803209F497
:100830005DC0EFC0803409F468C048F4803309F427
:1008400055C0883309F0E5C08093E602D8C08035F2
:1008500009F44FC0883509F45DC0883409F0D9C067
:10086000D6C0883909F4C7C0A8F4883709F467C02E
:1008700038F4883609F463C0803709F460C0C9C011
:10088000883809F4B8C0803909F45FC0803809F0AD
:10089000C0C05BC0803B09F486C038F4803A09F4DC
:1008A00066C0883A09F47FC0B4C0803C09F4A7C090
:1008B000883C09F4A4C0883B09F48AC0AAC080918E
:1008C0000C0310C090910B0380910A03981770F5E8
:1008D000E0910B0381E08E0F80930B03F0E0E65173
:1008E000FD4F80818093BB0085EC86C08093E6023B
:1008F0008EC0E0910B0381E08E0F80930B038091FB
:10090000BB00F0E0E651FD4F808390910B03809196
:100910000A036EC0E0910B0381E08E0F80930B03FE
:100920008091BB00F0E0E651FD4F80838091E902A9
:1009300081116DC081E08093E80284EA61C083E0A8
:100940008093E70210927403CFCF809174038032BA
:1009500008F051C0E091740381E08E0F809374031E
:100960008091BB00F0E0EC5AFC4F8083BDCF85EC5A
:100970008093BC001092E70280917403803230F4BF
:10098000E0917403F0E0EC5AFC4F10826091740324
:1009900070E0E091E402F091E50284E593E01995BE
:1009A0001092740336C084E08093E70210925303E0
:1009B00010925203E091E202F091E30219958091C6
:1009C0005203811105C081E08093520310923203DB
:1009D000E091530381E08E0F80935303F0E0EE5CCF
:1009E000FC4F80818093BB00909153038091520310
:1009F000981708F479CF85E88093BC000AC085EC8D
:100A00008093BC001092E70204C01092E6020E949C
:100A1000B203FF91EF91BF91AF919F918F917F9121
:100A20006F915F914F913F912F910F900BBE0F905F
:100A30000FBE0F901F901895CF93DF9390E0FC01AD
:100A4000EE59FD4F2491FC01E45EFD4F8491882313
:100A500061F190E0880F991FFC01E253FE4FC591B0
:100A6000D491FC01E851FE4FA591B491611109C0E8
:100A70009FB7F8948881209582238883EC912E2358
:100A80000BC0623061F49FB7F8948881322F3095A3
:100A900083238883EC912E2B2C939FBF06C08FB7A6
:100AA000F894E8812E2B28838FBFDF91CF91089592
:100AB0006F927F928F929F92AF92BF92CF92DF926E
:100AC000EF92FF920F931F93CF93DF9381E0809378
:100AD0008E048FB7F894409175035091760360911E
:100AE0007703709178038FBF80917E0490917F048B
:100AF000A0918004B0918104481B590B6A0B7B0BB9
:100B000080918A0490918B04A0E0B0E0841795074F
:100B1000A607B70708F0F0C0C0E080918804C817A6
:100B200030F0712C812C912C5401839440C0E091C1
:100B30008404F0918504EC0FF11D62E080810E9435
:100B40001C05CF5FEACFC62DD0E0E0918404F09180
:100B50008504EC0FFD1F80810E941B032496CC0F9F
:100B6000DD1FCE5DDB4F892B09F04BC08881998159
:100B70008C299D29998388836394809188046816C1
:100B800010F3E0918604F0918704E00FF11F61E01B
:100B900080810E9444038091860490918704FC0127
:100BA000E00FF11F60E080810E941C05739480912A
:100BB0008904781658F5072D10E0E0918604F0912D
:100BC0008704E00FF11F61E080810E941C05E09125
:100BD0008604F0918704E00FF11F60E080810E949D
:100BE0004403D501C401072C04C0880F991FAA1F14
:100BF000BB1F0A94D2F76C017C01E094F094612C45
:100C0000BCCF888199818E219F21B4CF22E2E22E30
:100C100024E0F22E8EE594E0F7012FEF3FEF478DB1
:100C200050A1452B21F4148E368F258F11A23696B4
:100C30008E179F07A1F7C0E096E0D92E8091880417
:100C4000C81758F5D0E00C2F10E0000F111F065DFB
:100C50001B4F20918904D217F0F4F8014081518193
:100C60000D2E02C0569547950A94E2F7642F6170E5
:100C7000C29F900111242D0F311DE2E2F4E080E0CB
:100C8000A58DB68D2A173B0709F456C08F5F36969F
:100C90008A30B1F735C0CF5FD1CF80E0F70191A1A5
:100CA000911181E0F6E0EF0EF11C9EE5E91694E06B
:100CB000F906A1F79FB7F894409175035091760318
:100CC00060917703709178039FBF40937E045093A7
:100CD0007F046093800470938104882369F080917D
:100CE0004304882349F08091410490914204019784
:100CF00019F480913E042AC010928E0480E026C030
:100D000040FF1CC0E2E2F4E080E090E0448D41113D
:100D100017C0E0918204F0918304E20FF31F408139
:100D2000D89EF001D99EF00D1124EE5DFB4F448F4B
:100D3000368F258F10A2178E0E941909DF5F89CF89
:100D4000019636968A30910509F7F8CFDF91CF9159
:100D50001F910F91FF90EF90DF90CF90BF90AF90D9
:100D60009F908F907F906F9008958F929F92AF92F7
:100D7000BF92CF92DF92EF92FF926B017C010E94B3
:100D8000400D4B015C01C114D104E104F104F1F008
:100D90000E94400DDC01CB0188199909AA09BB0901
:100DA000883E9340A105B10570F321E0C21AD10835
:100DB000E108F10888EE880E83E0981EA11CB11CA2
:100DC000C114D104E104F10419F7DDCFFF90EF90D5
:100DD000DF90CF90BF90AF909F908F90089596E056
:100DE000899FD0011124AE5DBB4F90967C936E938A
:100DF0005F9791E091969C93919790918E04E091EA
:100E00008F04F0919004992339F0309751F08111BB
:100E100008C080913E0404C0309719F05C968C9114
:100E200019940895CF93DF93CDB7DEB728970FB607
:100E3000F894DEBF0FBECDBF98E0EEE1F2E0DE0138
:100E4000119601900D929A95E1F790916E05981781
:100E500010F48FEF890FFE013196E80FF11DE80FB6
:100E6000F11D6081606840E086E695E028960FB647
:100E7000F894DEBF0FBECDBFDF91CF910C94230D50
:100E800040E061E086E695E00E94230D8BE39FE160
:100E90000197F1F780916F05882319F080E00C9499
:100EA00012070895EF92FF920F931F93CF93DF9352
:100EB000EC01E12CF12C00E010E0809160059091B4
:100EC0006105DC01ED91FC910084F185E02D19951F
:100ED000892B81F461E070E080E090E00E94B5062B
:100EE000BFEFEB1AFB0A28EEE21623E0F20628F326
:100EF0008FEF49C08091600590916105DC01ED9113
:100F0000FC910284F385E02D1995982F0930110585
:100F100048F5F8018827EC57FF4F8F4F0C94791153
:100F20009F3E59F61882998328C028813981A901EA
:100F3000492BCA019983888381309F4EF1F020C0EC
:100F4000FE01E00FF11F908318C09E8316C01F8220
:100F5000988713C02F813885D901A92BCD01988797
:100F60008F830BC0FE01E00FF11F80832F81388536
:100F7000C80108978217930729F00F5F1F4F9DCF75
:100F80008EEF01C080E0DF91CF911F910F91FF9014
:100F9000EF900895DF92EF92FF920F931F93CF93FC
:100FA000DF93EC0180916005909161056981DC011E
:100FB000ED91FC910190F081E02D199580916005F3
:100FC00090916105DC01ED91FC910190F081E02DA3
:100FD000688119958091600590916105DC01ED9122
:100FE000FC910190F081E02D6A8119958091600556
:100FF00090916105DC01ED91FC910190F081E02D73
:101000006B8119958091600590916105DC01ED91EE
:10101000FC910190F081E02D6C8119958091600523
:1010200090916105DC01ED91FC910190F081E02D42
:101030006D8119958091600590916105DC01ED91BC
:10104000FC910190F081E02D6E811995EF80F8847C
:10105000B2E0EB0EF11C80916005909161050F2DBF
:101060001127DC01ED91FC910190F081E02D602FC2
:1010700019958091600590916105DC01ED91FC91DD
:101080000190F081E02D6E2D19950E0D111D8E81B0
:10109000080F111DD12CED2CF12C2F81388580915A
:1010A000600590916105E216F30690F4EC0EFD1ECA
:1010B000DC01ED91FC910190F081E02DD7011996B2
:1010C0006C911995F7018185080F111DD394E3CF19
:1010D000DC01ED91FC910190F081E02D612F1995DB
:1010E0008091600590916105DC01ED91FC9101908A
:1010F000F081E02D602FDF91CF911F910F91FF9034
:10110000EF90DF901994CF93DF93482F50E060E089
:1011100070E02AE085E893E00E94180BEC0164EB94
:1011200072E085E893E00E94030B8C0F9D1FDF9116
:10113000CF910895CF93DF93BC0185E893E00E949F
:10114000030BEC0164EB72E085E893E00E94030B73
:101150008C0F9D1FDF91CF910895CF93DF93CDB773
:10116000DEB7C954D1090FB6F894DEBF0FBECDBFAC
:1011700021E03FEE3A83298391E09F8322E030E033
:10118000398728879FEF9B839C839D839E8392E072
:101190009A878B87CE0101960E94CA07CE010196DD
:1011A0000E945207811105C08F81873011F48A8512
:1011B00001C081E0C75BDF4F0FB6F894DEBF0FBE02
:1011C000CDBFDF91CF910895CF93DF93CDB7DEB739
:1011D000C954D1090FB6F894DEBF0FBECDBF81E070
:1011E0009FEE9A83898391E09F8321E030E03987E5
:1011F00028878FEF8B838C838D838E839A87CE0194
:1012000001960E94CA07CE0101960E9452078111E1
:1012100005C08F81873011F48A8501C081E0C75BEA
:10122000DF4F0FB6F894DEBF0FBECDBFDF91CF9179
:101230000895CF92DF92EF92FF920F931F9396E063
:10124000899FF0011124EE5DFB4F11A2278D30A183
:101250002130310539F158F02230310509F447C009
:101260002330310509F04FC060E070E044C06623D0
:1012700009F449C061E070E00E94EF062FB7F894CE
:101280008091750390917603A0917703B0917803D4
:101290002FBF80937A0490937B04A0937C04B09337
:1012A0007D0431C09FB7F894C0907503D090760349
:1012B000E0907703F09078039FBF00917A0410913B
:1012C0007B0420917C0430917D04C01AD10AE20A8B
:1012D000F30A00918C0410918D0420E030E00C158D
:1012E0001D052E053F0518F462E070E004C0611191
:1012F0000AC063E070E01F910F91FF90EF90DF90C4
:10130000CF900C94EF061F910F91FF90EF90DF901C
:10131000CF900895CF92DF92EF92FF920F931F9399
:10132000CF93DF936C017A018B01C0E0D0E0CE1542
:10133000DF0581F0D8016D918D01D601ED91FC9111
:101340000190F081E02DC6011995892B11F02196AD
:10135000EECF7E01C701DF91CF911F910F91FF90DA
:10136000EF90DF90CF900895FC01538D448D252F91
:1013700030E0842F90E0821B930B541710F0CF962F
:10138000089501970895FC01918D828D981761F061
:10139000828DDF01A80FB11D5D968C91928D9F5FAC
:1013A0009F73928F90E008958FEF9FEF0895FC0157
:1013B000918D828D981731F0828DE80FF11D858D0A
:1013C00090E008958FEF9FEF0895FC01918D228D9D
:1013D000892F90E0805C9F4F821B91098F73992722
:1013E000089581E994E00E94E50921E0892B09F440
:1013F00020E0822F089585E893E00E94E50921E02E
:10140000892B09F420E0822F0895FC01848DDF01EF
:10141000A80FB11DA35ABF4F2C91848D90E0019667
:101420008F739927848FA689B7892C93A089B18956
:101430008C91837080648C93938D848D981306C0F7
:101440000288F389E02D80818F7D80830895EF925B
:10145000FF920F931F93CF93DF93EC0181E0888F6E
:101460009B8D8C8D981305C0E889F989808185FD55
:1014700026C0F62E0B8D10E00F5F1F4F0F73112744
:10148000E02E8C8DE8120CC00FB607FCFACFE8896D
:10149000F989808185FFF5CFCE010E94050AF1CF41
:1014A0008B8DFE01E80FF11DE35AFF4FF0829FB7CD
:1014B000F8940B8FEA89FB89808180620AC09FB70C
:1014C000F894EE89FF896083E889F98980818370C7
:1014D000806480839FBF81E090E0DF91CF911F9176
:1014E0000F91FF90EF900895CF93DF93EC01888DDB
:1014F0008823C9F0EA89FB89808185FD05C0A88918
:10150000B9898C9186FD0FC00FB607FCF5CF80819D
:1015100085FFF2CFA889B9898C9185FFEDCFCE01E7
:101520000E94050AE7CFDF91CF91089580E090E017
:10153000892B21F00E94FB09811121C080E090E0FD
:10154000892B41F080E090E0892B21F00E9400007F
:10155000811118C080E090E0892B41F080E090E09C
:10156000892B21F00E94000081110FC080E090E0E3
:10157000892B81F00E94F10981110AC008950E940F
:101580000000DCCF0E940000E5CF0E940000EECFFB
:101590000C9400000895089580E090E008950E9462
:1015A0006612862F0C941B03862F642F0C94440321
:1015B000862F642F0C941C050F931F93CF93DF93FA
:1015C000EC0188819981009729F02A813B812617B7
:1015D000370788F48B016F5F7F4F0E94811100975E
:1015E00061F0998388831B830A832C813D81232B9F
:1015F00011F4FC01108281E001C080E0DF91CF9105
:101600001F910F9108956115710579F0FB0101900B
:101610000020E9F73197AF01461B570BDC01ED9134
:10162000FC910280F381E02D199480E090E0089510
:101630008F929F92AF92BF92EF92FF920F931F9360
:10164000CF93DF93CDB7DEB7A1970FB6F894DEBF87
:101650000FBECDBF7C01FA01CB0119A2223008F4E4
:101660002AE08E010F5D1F4F822E912CA12CB12CF0
:10167000BF01A50194010E945711F901CA0101504F
:1016800011096A3014F4605D01C0695CD8016C9383
:10169000232B242B252B61F7B801C7010E94030BD4
:1016A000A1960FB6F894DEBF0FBECDBFDF91CF91EC
:1016B0001F910F91FF90EF90BF90AF909F908F90F0
:1016C00008950C94030B1F920F920FB60F921124E2
:1016D0000BB60F922F933F934F935F936F937F932C
:1016E0008F939F93AF93BF93EF93FF9381E994E020
:1016F0000E94050AFF91EF91BF91AF919F918F9149
:101700007F916F915F914F913F912F910F900BBE01
:101710000F900FBE0F901F9018951F920F920FB64B
:101720000F9211240BB60F922F938F939F93EF93E9
:10173000FF93E091A104F091A2048081E091A704BD
:10174000F091A80482FD12C090818091AA048F5F5D
:101750008F732091AB04821751F0E091AA04F0E05E
:10176000EF56FB4F958F8093AA0401C08081FF91B3
:10177000EF919F918F912F910F900BBE0F900FBE05
:101780000F901F9018951F920F920FB60F92112471
:101790000BB60F922F933F934F935F936F937F936B
:1017A0008F939F93AF93BF93EF93FF9385E893E05D
:1017B0000E94050AFF91EF91BF91AF919F918F9188
:1017C0007F916F915F914F913F912F910F900BBE41
:1017D0000F900FBE0F901F9018951F920F920FB68B
:1017E0000F9211240BB60F922F938F939F93EF9329
:1017F000FF93E0919503F09196038081E0919B0324
:10180000F0919C0382FD12C0908180919E038F5FB6
:101810008F7320919F03821751F0E0919E03F0E0B7
:10182000EB57FC4F958F80939E0301C08081FF9101
:10183000EF919F918F912F910F900BBE0F900FBE44
:101840000F901F901895CF92DF92EF92FF920F9317
:101850001F93CF93DF93FC01C48121E02093D80232
:10186000C09373051092DC021092DB028485682B12
:1018700089E793E00E942E02D091DB02D13208F07A
:10188000BAC00E94400D6B017C018091E702882361
:1018900011F18091DE029091DF02A091E002B091FF
:1018A000E102892B8A2B8B2B81F30E94400D009142
:1018B000DE021091DF022091E0023091E102DC01B2
:1018C000CB018C199D09AE09BF09081719072A0712
:1018D0003B07D8F681C082E08093E70281E08093E5
:1018E000E9028FEF8093E60210920B03D0930A0374
:1018F000A8EBB2E0EAEEF2E080E0D81721F09D918B
:1019000091938F5FFACF10920C0380910C03CC0F50
:10191000C82BC0930C038091E802813089F51092A6
:10192000E8020E94400D6B017C0180910C038093C2
:10193000BB008091DE029091DF02A091E002B091A5
:10194000E102892B8A2B8B2BA9F00E94400D00917C
:10195000DE021091DF022091E0023091E102DC0111
:10196000CB018C199D09AE09BF09081719072A0771
:101970003B0790F18091BC0083FDD7CF85EC01C07F
:1019800085EE8093BC000E94400D6B017C0180912C
:10199000E702823031F58091DE029091DF02A09162
:1019A000E002B091E102892B8A2B8B2B81F30E94FC
:1019B000400D0091DE021091DF022091E002309193
:1019C000E102DC01CB018C199D09AE09BF090817A2
:1019D00019072A073B07D8F68091DD020E94910380
:1019E0000AC08091E6028F3F31F08091E60280329A
:1019F00011F08091E6021092DC021092DB0210924C
:101A0000D802DF91CF911F910F91FF90EF90DF905F
:101A1000CF9008950F931F93CF938C01C62F0E94F0
:101A2000230C6C2F6460C8010E94230C6C2F6B7F09
:101A3000C8010E94230C83EC90E00197F1F7CF914D
:101A40001F910F9108950F931F93CF93DF938C01F4
:101A5000C62FD42F607F642B0E940A0D80E1C89F9F
:101A6000B00111246D2BC801DF91CF911F910F910F
:101A70000C940A0D41E00E94230D81E090E008954E
:101A80003FB7F8948091750590917605A091770500
:101A9000B091780526B5A89B05C02F3F19F0019697
:101AA000A11DB11D3FBFBA2FA92F982F8827820FE4
:101AB000911DA11DB11DBC01CD0142E0660F771F34
:101AC000881F991F4A95D1F708951F920F920FB65C
:101AD0000F9211242F933F938F939F93AF93BF93B4
:101AE0008091750390917603A0917703B09178036C
:101AF0003091740523E0230F2D3720F40196A11DAA
:101B0000B11D05C026E8230F0296A11DB11D20932B
:101B100074058093750390937603A0937703B09335
:101B200078038091750590917605A0917705B09125
:101B300078050196A11DB11D8093750590937605DA
:101B4000A0937705B0937805BF91AF919F918F9146
:101B50003F912F910F900FBE0F901F901895CF932C
:101B6000DF93CDB7DEB7C954D1090FB6F894DEBF05
:101B70000FBECDBF789484B5826084BD84B581608A
:101B800084BD85B5826085BD85B5816085BD809148
:101B90006E00816080936E001092810080918100C0
:101BA00082608093810080918100816080938100B8
:101BB000809180008160809380008091B10084607A
:101BC0008093B1008091B00081608093B0008091DB
:101BD0009100826080939100809191008160809358
:101BE0009100809190008160809390008091A1008D
:101BF00082608093A1008091A10081608093A10008
:101C00008091A00081608093A0008091210182607A
:101C10008093210180912101816080932101809135
:101C2000200181608093200180917A0084608093FC
:101C30007A0080917A00826080937A0080917A00A5
:101C4000816080937A0080917A00806880937A0026
:101C50001092C10061E085E20E941C0561E082E310
:101C60000E941C05E0919503F091960382E0F82E06
:101C7000F082E0919103F09192031082E09193033E
:101C8000F091940300E1008310929D03E091990389
:101C9000F0919A0316E01083E0919703F091980376
:101CA000808180618083E0919703F0919803808127
:101CB00088608083E0919703F09198038081806829
:101CC0008083E0919703F091980380818F7D8083DA
:101CD00080E692E00E949A0868EE73E080E090E06F
:101CE0000E94B506E0916405F0916505309729F1F1
:101CF000A089B189FC92A089B1891C92A485B5857F
:101D00001C92A685B7850C93108EA489B5891C9367
:101D1000A289B3898C9180618C93A289B3898C91BB
:101D200088608C93A289B3898C9180688C93028897
:101D3000F389E02D80818F7D8083E0916205F091B1
:101D40006305309709F4ACC0138E128E118E108E7D
:101D5000178A168A82E490E0958F848F848596EFA7
:101D6000980F943048F02EEC280F243028F022EC05
:101D7000280F283008F067C02FE030E0378B268B23
:101D800020E430E0318F208F27E230E0338F228F44
:101D9000943060F02EEC280F243040F042EC480FD5
:101DA000483008F044C128E630E043C128E630E07E
:101DB000A8E6B0E04C91943048F09EEC980F943037
:101DC00028F08E53883010F484E001C081E0842B29
:101DD000D9018C93848596EF980F943058F02EECAF
:101DE000280F243038F022EC280F283030F020E083
:101DF00030E005C02BE630E002C02DE630E0348B49
:101E0000238B943010F49AEF0BC0823381F083332C
:101E100081F0843381F092EC980F983070F492EC5A
:101E2000980F81E001C0880F9A95EAF707C088E013
:101E300005C084E003C082E001C081E0858B848D11
:101E4000958D0197F1F7828D938D892B49F1409102
:101E50000F0350911003E417F50711F141155105D7
:101E600071F0DA0153962D913C915497D9019C91D0
:101E7000DA0155968C9180958923D9018C93868DB2
:101E80008E7F868F10920E0310920D03F093100335
:101E9000E0930F03A389B4899C918589892B8C9346
:101EA00090914405209145053091460540914705A4
:101EB00061E07FEE7A83698381E08F8365E070E083
:101EC000798768878FEF8B838C838D838E8383E103
:101ED0008A874B873C872D879E87CE0101960E947B
:101EE000CA07CE0101960E945207811109C08F8155
:101EF000873031F48A85811103C080E792E002C007
:101F00008AE892E00E949A081092DA021092D902AE
:101F10001092DC021092DB020E94730383ED91E0C9
:101F20009093E3028093E20284ED91E09093E502C6
:101F30008093E40210926B0580917105823018F055
:101F400098E090936B0580936E0562E370E080E00B
:101F500090E00E94B5066091720586E695E00E94C9
:101F6000230C68EE73E080E090E00E94B50660E329
:101F700086E695E00E940A0D0BE416E4C80101977D
:101F8000F1F760E386E695E00E940A0DC80101972B
:101F9000F1F760E386E695E00E940A0D83E592E0A2
:101FA0000197F1F760E286E695E00E940A0D6091E4
:101FB0006B05606240E086E695E00E94230D84E0B8
:101FC00080936C0540E06CE086E695E00E94230D6E
:101FD0000E94400782E080936D0540E066E086E65F
:101FE00095E00E94230D40E062E086E695E00E94C5
:101FF000230D8BE39FE10197F1F788E08093720551
:1020000060E086E695E00E94230C68EE73E080E0D5
:1020100090E00E94B50681E00E9412076DEA72E02E
:1020200086E695E00E94610B0E94960AFDCF20E0B3
:1020300030E0483008F4BCCEA0E0B0E0BBCE109257
:102040007C0310927B0388EE93E0A0E0B0E08093E5
:102050007D0390937E03A0937F03B09380032AE2D5
:1020600032E030937A032093790321E934E010922F
:102070009404109293048093950490939604A093F3
:102080009704B09398044CE352E050939204409329
:10209000910465E371E070939E0460939D0464E392
:1020A00071E07093A00460939F0460E371E070930B
:1020B000A2046093A10461E371E07093A4046093AF
:1020C000A30462E371E07093A6046093A50466E341
:1020D00071E07093A8046093A7041092AA04109270
:1020E000AB041092AC041092AD04109288031092CD
:1020F00087038093890390938A03A0938B03B09303
:102100008C03509386034093850385EC90E0909375
:1021100092038093910384EC90E0909394038093D6
:10212000930380EC90E0909396038093950381EC69
:1021300090E0909398038093970382EC90E09093C3
:102140009A038093990386EC90E090939C0380938C
:102150009B0310929E0310929F031092A003109273
:10216000A103109269051092680588E592E09093AA
:1021700067058093660510926F0587E280936A0574
:1021800080E18093700582E0809371051092720562
:1021900010923505109234051092370510923605CD
:1021A00040E450E0509339054093380510923B05C8
:1021B00010923A058FEF9FEFDC0180933C059093DE
:1021C0003D05A0933E05B0933F05509341054093D4
:1021D000400540E051EE5093430540934205109274
:1021E00044051092450510924605109247058093CC
:1021F000480590934905A0934A05B0934B0510926A
:102200006305109262053093650520936405309351
:102210006105209360051092240410922804109206
:102220002704109229048EE492E090932304809373
:102230002204E2E2F4E08EE594E0148E10A2178E00
:1022400011A236968E179F07C1F784E092E0909313
:1022500085048093840480E092E0909387048093C7
:10226000860484E0809388048093890488E092E067
:1022700090938304809382048AE090E090938B048F
:1022800080938A0484EF91E090938D0480938C0472
:102290001092900410928F0410927E0410927F048A
:1022A000109280041092810410928E040895A1E28D
:1022B0001A2EAA1BBB1BFD010DC0AA1FBB1FEE1FC0
:1022C000FF1FA217B307E407F50720F0A21BB30B0B
:1022D000E40BF50B661F771F881F991F1A9469F787
:1022E00060957095809590959B01AC01BD01CF01E3
:1022F0000895EE0FFF1F881F8BBF0790F691E02D0A
:1023000019946F927F928F929F92AF92BF92CF92C9
:10231000DF92EF92FF920F931F93CF93DF9300977B
:1023200089F4CB01DF91CF911F910F91FF90EF9036
:10233000DF90CF90BF90AF909F908F907F906F90E5
:102340000C947412FC01E60FF71F9C012250310916
:10235000E217F30708F4A9C0EC01D9010D911C9113
:10236000119706171707B0F00530110508F49BC048
:10237000C80104978617970708F495C00250110901
:10238000061B170B019311936D937C93CF010E9451
:102390000C1389C05B01A01AB10A4C01800E911E7A
:1023A000A0917B05B0917C05612C712CE12CF12C66
:1023B000109709F446C08D919C911197A815B90505
:1023C000B1F56C0142E0C40ED11CCA14DB0478F1F3
:1023D0004C018A189B08640142E0C40ED11C12967D
:1023E000BC9012971396AC91B5E0CB16D10440F097
:1023F000B282A38391828082D9016D937C9309C0BC
:102400000E5F1F4F800F911FF90191838083EB2D89
:10241000FA2FE114F10431F0D7011396FC93EE93F7
:10242000129741C0F0937C05E0937B053CC0681691
:10243000790608F43C017D0112960D90BC91A02D07
:10244000B7CF8091790590917A0588169906E1F4C5
:1024500066167706C8F480911802909119020097C9
:1024600041F48DB79EB740911C0250911D02841B10
:10247000950BE817F907C8F4F0937A05E09379050E
:10248000F901718360830FC0CB010E9474127C013B
:10249000009759F0A801BE010E946B12CE010E9464
:1024A0000C13C70104C0CE0102C080E090E0DF91B0
:1024B000CF911F910F91FF90EF90DF90CF90BF9041
:1024C000AF909F908F907F906F90089581E090E003
:1024D000F8940C949513FB01DC0102C001900D925D
:1024E00041505040D8F708950F931F93CF93DF9337
:1024F0008230910510F482E090E0E0917B05F0914C
:102500007C0520E030E0A0E0B0E0309719F1408198
:1025100051810281138148175907C8F08417950724
:1025200069F4109731F012960C93129713961C933E
:1025300027C000937B0510937C0522C0211531052F
:1025400019F04217530718F49A01BD01EF01DF019A
:10255000F801DBCF21153105F9F0281B390B2430A8
:10256000310580F48A819B816115710521F0FB01A1
:102570009383828304C090937C0580937B05FE0146
:10258000329644C0FE01E20FF31F819391932250D3
:102590003109398328833AC02091790530917A0531
:1025A000232B41F420911A0230911B0230937A05BB
:1025B00020937905209118023091190221153105D7
:1025C00041F42DB73EB740911C0250911D02241BCF
:1025D000350BE0917905F0917A05E217F307A0F445
:1025E0002E1B3F0B2817390778F0AC014E5F5F4F69
:1025F0002417350748F04E0F5F1F50937A0540931C
:1026000079058193919302C0E0E0F0E0CF01DF9182
:10261000CF911F910F910895CF93DF93009709F405
:1026200081C0FC01329713821282A0917B05B09188
:102630007C05109781F420813181820F931F2091B6
:10264000790530917A052817390751F5F0937A0505
:10265000E093790567C0ED0120E030E0CE17DF0799
:1026600040F44A815B819E0141155105F1F0EA0178
:10267000F5CFD383C28340815181840F951FC81742
:10268000D90759F488819981840F951F0296918307
:1026900080838A819B81938382832115310529F46C
:1026A000F0937C05E0937B053DC0E901FB83EA8361
:1026B00049915991C40FD51FEC17FD0761F4808132
:1026C0009181840F951F0296E90199838883828105
:1026D00093819B838A83E0E0F0E012968D919C9138
:1026E0001397009719F0FD01DC01F7CF8D919C91B4
:1026F00011979D012E5F3F4F820F931F2091790507
:1027000030917A052817390769F4309729F4109227
:102710007C0510927B0502C013821282B0937A0569
:0E272000A0937905DF91CF910895F894FFCF33
:10272E002D2B29273533312F313233413435364273
:10273E00373839432A30234400007D05200000003D
:10274E00400014005400000000002E020102CC0ACA
:10275E00D501F901E501D60100000000270A8A091A
:10276E00B409740AE509C309D70900000000D80AA4
:10277E00D40AD10A000000003A0D8A09CC0ACB0A0D
:10278E00486F6D65204175746F6D6174696F6E0071
:10279E00466F756E642066696E6765727072696EDB
:1027AE00742073656E736F722100446964206E6FBE
:1027BE00742066696E642066696E676572707269F0
:1027CE006E742073656E736F72203A280048656CC4
:0827DE006C6F20000D0A0000E1
:00000001FF
